:0600000000308A008C288C
:10000800F70003088301BE000A08BF008A017008D0
:10001800C2007108C1007208C0007308C3007408E8
:10002800C6007508C5007608C4003A08BC003B083D
:08003800BD008B1C71288B1028
:1000400083160313011F2D2883121010831601132A
:1000500083128F018E0110147128831210108316E1
:1000600001176430F200F30183120F08BB00BA01DC
:100070000E08F000F1013A08F0070318F10A3B08F6
:10008000F1070A128A1579270A128A117408A50045
:100090006530250203185528A20803196E28220886
:1000A000093A031D57282408A300A2016F28043031
:1000B0002502031C63280730250203186328031058
:1000C000A40CA4136E280E302502031C6F281130D7
:1000D000250203186F280310A40CA417A20A8F018D
:1000E0008E01031383124208F0004108F10040081A
:1000F000F2004308F3004608F4004508F500440800
:10010000F6003C08BA003D08BB003F088A003E08E4
:100110008300F70E770E0900203084003830A720C6
:100120000F30BB00FE30BA00383084003A30AC20CB
:100130008317103084007030A72090308400F03096
:10014000A7200A128A15A12E04068001840A04063B
:10015000031DA42864000034F0000A128A11BC2098
:100160000A128A118000840A04087006031DAD2853
:10017000003483120313BA00BB1BC7283B1BCF28D4
:100180003B088A003A08BA0A0319BB0A82008313A3
:100190003B1883173A08BA0A8400000808007E3426
:1001A0008134BD349D34AD3481347E3400347E34AA
:1001B00081349534B134B134953481347E347E3415
:1001C000FF34EB34CF34CF34EB34FF347E340E3491
:1001D0001F343F347E343F341F340E34003408342F
:1001E0001C343E347F343E341C34083400343834FC
:1001F00038349F34FF349F3438343834003410346A
:100200003834BC34FF34BC34383410340034003457
:10021000003418343C343C34183400340034FF3497
:10022000FF34E734C334C334E734FF34FF340034DD
:100230003C3466344234423466343C340034FF3457
:10024000C3349934BD34BD349934C334FF3470346D
:1002500088348834883489347D3403340F3400344E
:100260004E345134F134F13451344E340034C0340E
:10027000E0347F3405340534053405340734C034A4
:10028000E0347F3405340534653475343F345A34F2
:100290005A343C34E734E7343C345A345A347F34EB
:1002A0003E343E341C341C340834083400340834E2
:1002B00008341C341C343E343E347F340034003463
:1002C00024346634FF34FF3466342434003400347C
:1002D00000345F34003400345F34003400340634BA
:1002E000093409347F34013401347F34013440341B
:1002F000DA34A734A534E5345934033402340034F5
:10030000703470347034703470347034003480342D
:100310009434B634FF34FF34B6349434803400342B
:100320000C3406347F3406340C340034003400348A
:10033000183430347F343034183400340034083406
:10034000083408342A343E341C3408340034083469
:100350001C343E342A340834083408340034003461
:100360003C34203420342034203420340034083409
:100370001C343E34083408343E341C3408343034E1
:1003800038343C343E343C34383430340034063471
:100390000E341E343E341E340E3406340034003421
:1003A00000340034003400340034003400340034AD
:1003B000003400345F34003400340034003400343E
:1003C000003407340034003407340034003400347F
:1003D00014347F34143414347F341434003400342F
:1003E00024342A346B346B342A341234003400340D
:1003F00046342634103408346434623400343034E3
:100400004A3445344D3432344834483400340034AE
:100410000034043403340034003400340034003435
:100420001C342234413400340034003400340034AD
:100430000034413422341C34003400340034083495
:100440002A341C341C341C342A340834003400345C
:10045000083408343E34083408340034003400349E
:10046000003480346034003400340034003400340C
:1004700008340834083408340834083400340034AC
:10048000003400346034003400340034003400346C
:10049000403420341034083404340234003400343E
:1004A0003E3461345134493445343E3400340034F0
:1004B000443442347F344034403400340034003417
:1004C0006234513451344934493466340034003490
:1004D00022344134493449344934363400341034F8
:1004E0001834143452347F3450341034003400340F
:1004F00027344534453445344534393400340034E8
:100500003C344A34493449344934303400340034BA
:1005100003340134713409340534033400340034B5
:10052000363449344934493449343634003400349B
:10053000063449344934493429341E3400340034F3
:1005400000340034663400340034003400340034A5
:100550000034803466340034003400340034003415
:10056000083414342234413400340034003400346C
:100570002434243424342434243424340034003403
:10058000003400344134223414340834003400344C
:100590000234013401345134093406340034003457
:1005A0003E3441345D34553455341E340034003407
:1005B0007C3412341134113412347C34003400345D
:1005C00041347F34493449344934363400340034BA
:1005D0001C34223441344134413422340034003458
:1005E00041347F344134413422341C3400340034EB
:1005F00041347F3449345D34413463340034003451
:1006000041347F3449341D34013403340034003420
:100610001C342234413451345134723400340034A7
:100620007F3408340834083408347F34003400340C
:10063000003441347F344134003400340034003419
:1006400030344034403441343F34013400340034D9
:1006500041347F340834143422344134403400347B
:1006600041347F3441344034403460340034003409
:100670007F34013402340434023401347F340034D2
:100680007F3401340234043408347F3400340034BD
:100690003E3441344134413441343E34003400343A
:1006A00041347F3449340934093406340034003489
:1006B0001E3421342134313421345E34403400344A
:1006C00041347F34493419342934463400340034F9
:1006D00026344934493449344934323400340034FE
:1006E0000334013441347F34413401340334003461
:1006F0003F3440344034403440343F3400340034DC
:100700000F34103420344034203410340F3400348B
:100710003F34403440343834403440343F34003483
:100720004134223414340834143422344134003433
:100730000134023444347834443402340134003413
:1007400043346134513449344534433461340034E2
:100750007F344134413441340034003400340134B6
:10076000023404340834103420344034003400346B
:100770004134413441347F3400340034003408348F
:100780000434023401340234043408340034803434
:100790008034803480348034803480348034003439
:1007A00000340034033404340034003400340034A2
:1007B0002034543454345434543478344034003471
:1007C00001347F34303448344834483430340034D1
:1007D0003834443444344434443428340034003409
:1007E000303448344834483431347F344034003471
:1007F00038345434543454345434183400340034B9
:10080000003448347E344934013402340034003436
:100810009834A434A434A434A43478340434003494
:1008200041347F34083404340434783400340034E0
:10083000003444347D344034003400340034003417
:10084000603480348034803484347D340034003427
:1008500001347F34103428344434403400340034BC
:10086000003441347F3440340034003400340034E8
:100870007C3404340434783404340434783400345C
:100880007C340834043404340434783400340034C0
:100890003834443444344434443438340034003438
:1008A0008434FC3498342434243418340034003430
:1008B0001834243424349834FC3484340034003420
:1008C00044347C3448340434043418340034003460
:1008D00048345434543454345434243400340034BC
:1008E000043404343F344434443420340034003479
:1008F0003C3440344034403420347C3400340034C0
:100900000C34103420344034203410340C3400348F
:100910003C34403440343834403440343C34003487
:10092000443428341034283444340034003400343F
:100930009C34A034A034A034A0347C34003400347F
:100940004434643454344C3444340034003400347B
:10095000083408343634413441340034003400342F
:100960000034003477340034003400340034003470
:10097000003441344134363408340834003400340F
:1009800002340134013402340234013400340034BE
:10099000703448344434423444344834703400347D
:1009A0000E3491349134B134B1344A3400340034CB
:1009B0003A344034403440347A34403400340034E3
:1009C00038345434543455345534183400340034E5
:1009D000223455345534553479344234003400349B
:1009E0002134543454345434783441340034003491
:1009F0002034553455345434783440340034003481
:100A00002034543455345434783440340034003471
:100A100018342434A434A434E4344034003400348E
:100A20003A3455345534553455341A34003400347E
:100A30003934543454345434543419340034003474
:100A40003834553455345434543418340034003464
:100A50000034013444347C344134003400340234F2
:100A6000013445347D3441340134023400340034DF
:100A70000034013445347C344034003400340034D4
:100A80007934143412341234143479340034003488
:100A90007834243425342534243478340034003434
:100AA00044347C34543455344534003400340034F8
:100AB0002034543454345834383454345434003496
:100AC0007C340A34093409347F34493449340034DD
:100AD00030344A34493449344A34303400340034F0
:100AE00032344834483448344834323400340034E2
:100AF000303449344A3448344834303400340034D3
:100B000038344234413441344234383400340034CF
:100B100038344134423440344034383400340034C2
:100B20001A34A034A034A034A0347A340034003411
:100B30001934243442344234243419340034003417
:100B40003D3440344034403440343D34003440344B
:100B500038346434543454344C3438340434003429
:100B600068345E34493441344234203400344034F3
:100B70003E3451344934453443343E3401348134B5
:100B8000FF34853405341734FA349034503440340B
:100B9000883488347F340934093402340034003412
:100BA00020345434543455347934403400340034CF
:100BB0000034003444347D34413400340034003493
:100BC0003034483448344A34493430340034003402
:100BD00038344034403444344234383400340034FF
:100BE0007A34093409340A340A3471340034003454
:100BF0007A340934113422344234793400340034E4
:100C000026342934293429342F342834003400344C
:100C1000263429342934293426340034003400346D
:100C200030344834453440344034203400340034C7
:100C300038340834083408340834083400340034B4
:100C400008340834083408340834383400344A345A
:100C50002F3418348834D434CA34A934B0344A34E4
:100C60002F341834283434342A34FD3420340034FA
:100C7000003400347A34003400340034003400345A
:100C80000834143422340834143422340034003448
:100C90002234143408342234143408340034AA348E
:100CA000003455340034AA34003455340034AA34A6
:100CB0005534AA345534AA345534AA345534DD3465
:100CC000FF34AA347734DD34AA34FF347734003467
:100CD00000340034FF340034003400340034103465
:100CE00010341034FF340034003400340034143431
:100CF00014341434FF34003400340034003410341D
:100D000010341034FF340034FF3400340034103415
:100D100010341034F0341034F0340034003414340F
:100D200014341434FC3400340034003400341434EB
:100D300014341434F7340034FF34003400340034F5
:100D400000340034FF340034FF34003400341434F1
:100D500014341434F4340434FC34003400341434C3
:100D600014341434173410341F3400340034103465
:100D7000103410341F3410341F3400340034143451
:100D8000143414341F34003400340034003410346C
:100D900010341034F03400340034003400340034A3
:100DA000003400341F341034103410341034103434
:100DB000103410341F341034103410341034103404
:100DC00010341034F0341034103410341034003433
:100DD00000340034FF341034103410341034103424
:100DE00010341034103410341034103410341034E3
:100DF00010341034FF3410341034103410340034F4
:100E000000340034FF3414341434143414340034F3
:100E100000340034FF340034FF3410341034003414
:100E2000003400341F3410341734143414340034B4
:100E300000340034FC340434F434143414341434E2
:100E40001434143417341034173414341434143460
:100E500014341434F4340434F434143414340034B6
:100E600000340034FF340034F734143414341434B0
:100E70001434143414341434143414341434143432
:100E800014341434F7340034F73414341434143470
:100E90001434143417341434143414341434103413
:100EA000103410341F3410341F3410341034143400
:100EB00014341434F4341434143414341434103416
:100EC00010341034F0341034F03410341034003452
:100ED000003400341F3410341F3410341034003404
:100EE000003400341F3414341434143414340034F3
:100EF00000340034FC341434143414341434003406
:100F000000340034F0341034F03410341034103421
:100F100010341034FF341034FF34103410341434CF
:100F200014341434FF34143414341434143410349A
:100F3000103410341F3400340034003400340034D2
:100F400000340034F0341034103410341034FF34D2
:100F5000FF34FF34FF34FF34FF34FF34FF34F03408
:100F6000F034F034F034F034F034F034F034FF3452
:100F7000FF34FF34FF3400340034003400340034D4
:100F8000003400340034FF34FF34FF34FF340F34B6
:100F90000F340F340F340F340F340F340F34003448
:100FA000383444344434283410342834443400343D
:100FB000FC342A342A342A342A34143400340034D9
:100FC0007E340234023402340234063400340034F5
:100FD000043402347E3402347E3402340234003469
:100FE0006334553449344934413463340034003473
:100FF0003834443444343C340434043400348034CD
:101000007E341034103410340E3410340034003474
:101010000434023402347C340434023402340034A4
:101020009934A534E734A5349934003400340034BD
:101030001C342A34493449342A341C3400340034F2
:101040004C3472340134013472344C340034003482
:1010500030344A344D344D344934303400341C3447
:101060002234223414340834143422341C348034AE
:101070005834243434342C342634193400340034B5
:1010800000341C342A3449344934003400340034E8
:101090007E3401340134013401347E3400340034B0
:1010A0002A342A342A342A342A342A3400340034A4
:1010B000443444345F344434443400340034003421
:1010C0004034403451344A344434403400340034E1
:1010D000403444344A3451344034403400340034D1
:1010E00000340034FE3401340134063400346034FA
:1010F000803480347F3400340034003400340034D1
:10110000083408346B346B34083408340034003449
:10111000243412341234243424341234003400348D
:101120000634093409340634003400340034003401
:1011300000340034183418340034003400340034DF
:1011400000340034103410340034003400342034BF
:10115000203440348034FF3401340134013400340D
:101160001F340134013401341E340034003400349F
:10117000123419341534123400340034003400347D
:1011800000343C343C343C343C34003400340034CF
:101190003E3441345D34553441343E3400348207AA
:1011A000BE34A234BE34A434BE34A034BA34AA341B
:1011B000AE34A234AA34BE348E348834BE34AE3455
:1011C000AA34BA34BE34AA34BA3486348234BE3433
:0C11D000BE34AA34BE34AE34AA34BE349F
:10181200000000000000000083010800F00000301A
:10182200711870070310F00D0310F10CF108031981
:101832000800112CF401F5010310F30CF20C031C47
:10184200292C7008F40771080318710AF5070310B0
:10185200F00DF10D72087304031900341D2C83017D
:10186200A900AA01482C29082A07A90029080A1652
:101872008A11002229082A07A9002A082907F0004C
:1018820070030A168A1100220A128A15AA0A2B0864
:101892002A02031C342CAA012A082A02031808006F
:1018A2002908A90029082A070A168A1100222B08EA
:1018B2002907F0007003A90029082A070A168A11CD
:1018C20000220A128A15AA0A4D2C8301AA00AF012E
:1018D200B0012902A9002A08AD00AE012A08F200CF
:1018E200F3010310F20DF30D0330F000F101720861
:1018F200F002031CF1037308F1027008AB007108D7
:10190200AC00072D831203132D082907A9002F0805
:101912002A070A168A1100222D082902A9002F0877
:101922002A070A168A1100222D082907A9002F0862
:101932002A020A168A1100222D082902A9002F085C
:101942002A020A168A1100222F082907A9002D0847
:101952002907F000290870020A168A1100222F08AE
:101962002902A9002D082907F000290870020A1689
:101972008A1100222F082907A9002D082902F00048
:10198200290870020A168A1100222F082902A900CA
:101992002D082902F000290870020A168A11002275
:1019A2000A128A153008F1002F08F000AC1FEA2C49
:1019B2000310F00DF10D0310F00DF10D0630F007DC
:1019C2000318F10A7008AB070318AC0A7108AC07D8
:1019D200042D2D08F002031CF1032E08F10203105E
:1019E200F00DF10D0310F00DF10D0A30F0070318A0
:1019F200F10A7008AB070318AC0A7108AC07AD080E
:101A02000319AE03AD03AF0A0319B00A2E08803AD8
:101A1200F0003008803A7002031D112D2F082D02AC
:101A2200031C0800832C8301AD000A168A11442589
:101A32004B30B400B501B50A00300A168A11CC2722
:101A42000A168A11EC270A168A11EC270A168A113D
:101A5200EC272D08B400B501B50A00300A168A1128
:101A6200CC270A168A11EC270A168A11252D830122
:101A7200B3000A168A1144254730B400B501B50AED
:101A820000300A168A11CC27B401B501B50A330811
:101A92000A168A11CC272E08B400B501B50A2F0800
:101AA2000A168A11CC273008B400B501B50A3108EC
:101AB2000A168A11CC273208B400B501B50A0030E3
:101AC2000A168A11CC270A168A11EC270A168A11DD
:101AD200252D03308301B6006C300A168A112B21A2
:101AE2000230B8000330B600BF300A168A112B212B
:101AF20039080A168A11C62230300A168A11622162
:101B020008300A168A11622106300A168A116221E9
:101B120000300A168A11622128080A168A11C62A7A
:101B22008301B90A390828020318992DB901B90AA3
:101B32006A250A128A15A708031908000330F10062
:101B420039030A128A150F240A128A15AD002D0ACA
:101B5200103E840083170008AE002D08023E103E9E
:101B6200840083170008AF002D08033E103E840056
:101B720083170008B0002D08043E103E840083172E
:101B82000008B1002D08053E103E840083170008AE
:101B9200B2002D08103E840083170008382D8301FF
:101BA200B90BD52D2808B9006A250A128A15A7088B
:101BB200031908000330F10039030A128A150F24B1
:101BC2000A128A15AD002D0A103E84008317000800
:101BD200AE002D08023E103E840083170008AF00BD
:101BE2002D08033E103E840083170008B0002D0824
:101BF200043E103E840083170008B1002D08053E04
:101C0200103E840083170008B2002D08103E8400A5
:101C120083170008382D8301AD000A168A11442566
:101C22001E30B400B501B50A00300A168A11CC275D
:101C32000A168A11EC272D08B400B501B50A003046
:101C42000A168A11CC270A168A11EC270A168A115B
:101C5200EC270A168A11EC270A168A11252D830110
:101C6200AD000A168A1144251B30B400B501B50A2D
:101C720001300A168A11CC270A168A11EC272D0880
:101C8200B400B501B50A00300A168A11CC270A162B
:101C92008A11EC270A168A11EC270A168A11EC27F8
:101CA2000A168A11252D83018701FF3083168700CA
:101CB20083128601C1308316860003308312B60078
:101CC2003F300A168A112B210330B60040300A1623
:101CD2008A112B210330B600B8300A168A112B2143
:101CE2000A128A150330B600C0300A168A112B294F
:101CF2008B010630831603139F0080308100183059
:101D02008312850020308316850083128601C1303C
:101D120083168600033083128900043083168900FB
:101D220083128701FF30831687008312880183168E
:101D320088000B138B170B162030831290000800BB
:101D420083120313A9010230AB00AA01792654269B
:101D52000A168A1100240A168A11F9250A168A110E
:101D6200E0230A128A15013030260A168A11F2245B
:101D72000A128A1501300C260A168A11D1260A1275
:101D82008A15003030260A168A1122240A128A1570
:101D92006A250A128A15A3080319CC2E2308143ABD
:101DA200031D042FA70800300319DC2E30260A1267
:101DB2008A15A7014B2F0C260A128A152B083026EA
:101DC2000A128A152B08023A031DEA2E0330AB00D1
:101DD200FF2E0230AB00013030260A168A11D126BE
:101DE2000A128A15003030260A168A1122240A1293
:101DF2008A15B901B90A6A250A128A1501300C2618
:101E02000A128A154B2F2308043A031D512FA708E3
:101E12000319172F2A0814250A128A15AA0803196A
:101E2200142FAA014B2FAA01AA0A4B2F6A250330AD
:101E3200F10039030A128A150F240A128A15AC001E
:101E42002C0A103E840083170008AE002C08023EC4
:101E5200103E840083170008AF002C08033E103E9A
:101E6200840083170008B0002C08043E103E840052
:101E720083170008B1002C08053E103E840083172A
:101E82000008B2002C08103E840083170008382591
:101E9200A701A70A0A168A11F2240A128A15622FCA
:101EA2002308083A031D592FD0250A128A155E2FDE
:101EB20023080C3A031D622F9125FF300A168A115E
:101EC200E3240230B8000330B60040300A168A110B
:101ED2002B210330B600BF300A168A112B212308AA
:101EE2000A168A1113230A128A15A301A201CC2E03
:101EF200F601F11F832FF009F00A0319F103F1092A
:101F02007617F61773088039F606F31FC52FF20904
:101F1200F20A0319F303F309C52FF000F4010310C9
:101F2200FD307107031CB52FF301F0307105031D5D
:101F32009D2F0430F300F10EF2010310F30AF10DAC
:101F4200031C9F2FF10C710870020318F000F20DB0
:101F5200F30BA32FF41FAF2FF209F20A7208F41F3A
:101F62000800F009F00A0800F10C0318BE2FF10C6A
:101F7200031CF0010310F00C031C03107008F200A4
:101F8200F001F00DAB2FF601F401F50172087304B4
:101F9200031DCE2FF001F10100341F30F6040310AF
:101FA200F60AF20DF30D031CD12FF30CF20C730899
:101FB2007102031DDE2F72087002031CE62F7208E5
:101FC200F0027308031C730AF102F40DF50DF60B0F
:101FD200F61AD62FF61FF22FF409F40A0319F503A5
:101FE200F5097408F2007508F300761F0034F00951
:0E1FF200F00A0319F103F1090034013401343F
:1021AC008301B3000A30F10033080A128A158E2716
:1021BC000A168A1197220A168A11803062210A3077
:1021CC00F10033080A128A158E270A168A11700834
:1021DC0097220A168A11803062210A168A119430CD
:1021EC0062210A168A11803062210A30F10032080D
:1021FC000A128A158E270A168A1197220A168A1134
:10220C00803062210A30F10032080A128A158E27BA
:10221C000A168A117008972AFF3083160313870059
:10222C008312861186100615861206168615000076
:10223C00871B1E2986110612861686150000871B21
:10224C00252986118612061108008301B700C039B2
:10225C00403A031D342937083F39A0003708F839B4
:10226C00B83A031D3C2937080739A6003608033A4B
:10227C00031942293608B8001221861006110612DD
:10228C008612360B4B29061655293608023A0319C5
:10229C0054293608033A031D55290616861683164B
:1022AC0087018312370887008615000000000000A4
:1022BC0086110612861208008301B5002008403AE8
:1022CC00031D8529380B6D290230B800792938088F
:1022DC00023A031D7929A60A0330B6002608B83E37
:1022EC002B21B801B80A2608083A031D8429A60137
:1022FC000330B600B8302B21B801B80AA001122166
:10230C008316870183128614061106128612380B67
:10231C009129061695293808023A031986163508AC
:10232C008700861500000000000086110612861238
:10233C00A00A2008403A031D08002608073A031D8E
:10234C0008003808023A031D0800A0010330B6004B
:10235C00B8302B21A601B801B80A08008301A901E5
:10236C002008403A031DD729380BBF290230B8008A
:10237C00CB293808023A031DCB29A60A0330B60034
:10238C002608B83E2B21B801B80A2608083A031DC6
:10239C00D629A6010330B600B8302B21B801B80AF3
:1023AC00A00112218614061506128612380BE0299C
:1023BC000616E4293808023A031986168615000019
:1023CC0000000000861112218614061506128612D2
:1023DC00380BF2290616F6293808023A0319861624
:1023EC008615000000000708A90086110612861247
:1023FC00A00A08008301A9004030290203180B2A07
:10240C00B601B60A2908403E0E2A0230B600290849
:10241C002B210330B6002908F0000310F00C031038
:10242C00F00C0310700CB83E2B21B421AA004030E4
:10243C0029020318262AB601B60A2908403E292A81
:10244C000230B60029082B210730A9052908073AC4
:10245C00031D322AAA17582A2908063A031D382ABE
:10246C002A17582A2908053A031D3E2AAA16582A63
:10247C002908043A031D442A2A16582A2908033A23
:10248C00031D4A2AAA15582A2908023A031D502A64
:10249C002A15582A290B542AAA14582AA908031DAC
:1024AC00582A2A142A0862298301AA0080302A0299
:1024BC000318632AB601B60A652A0230B6002A0848
:1024CC00403E2B210330B6002908F0000310F00C1D
:1024DC000310F00C0310700CB83E2B21B421A90092
:1024EC0080302A0203187D2AB601B60A7F2A0230F0
:1024FC00B6002A08403E2B2129080739F20001308A
:10250C00F0000030F101F20A8E2A0310F00DF10DEB
:10251C00F20B8B2A71087004003003190130290565
:10252C0062298301B4000330F10034080A128A15C1
:10253C000F24F00008308A007008CF200A168A1188
:10254C0062210330F10034080A128A150F24F000BE
:10255C00700AF00008308A007008CF200A168A1121
:10256C0062210330F10034080A128A150F24023E4E
:10257C00F00008308A007008CF200A168A116229F0
:10258C008301AE000A30F1002E080A128A158E273C
:10259C000A168A11AF0097220A168A11803062211E
:1025AC000A30F1002E080A128A158E270A168A1193
:1025BC007008AF0097220A168A1100306229830135
:1025CC00AE00AF010E2B2E08F200F3010310F20D3A
:1025DC00F30D0310F20DF30D0310F20DF30D2F0894
:1025EC00F000F1017208F0070318F10A7308F10703
:1025FC007108003EBB007008CF3E0318BB0A0A12DC
:10260C008A11B9200A168A1162210A168A11AF0A98
:10261C0008302F0203180800E92A8301AD00F039B5
:10262C00F000A03070022D080318242BF039F000B4
:10263C00F00E0F30F0057008303E2B2BF039F00007
:10264C00F00E0F30F0057008373EE5222D080F39DB
:10265C00F0000A3070022D080318372B0F39303E6A
:10266C00E52A0F39373EE52A1030F2002730F30007
:10267C00831203132A08F1002908F0000A128A15A4
:10268C00C4270A168A117408A900303EE5221030BE
:10269C00F2002730F3002A08F1002908F0000A1292
:1026AC008A15C427E830F2000330F3000A128A15A9
:0426BC00C4270A160F
:1026C0008A117408A900303EE5221030F20027304C
:1026D000F3002A08F1002908F0000A128A15C4271D
:1026E000E830F2000330F3000A128A15C427643080
:1026F000F2000030F3010A128A15C4270A168A1163
:102700007408A900303EE5221030F2002730F300B3
:102710002A08F1002908F0000A128A15C427E830B7
:10272000F2000330F3000A128A15C4276430F20065
:102730000030F3010A128A15C4270A30F200003073
:10274000F3010A128A15C4270A168A117408A9000F
:10275000303EE5221030F2002730F3002A08F10065
:102760002908F0000A128A15C427E830F200033065
:10277000F3000A128A15C4276430F2000030F30116
:102780000A128A15C4270A30F2000030F3010A1237
:102790008A15C4270A168A117008A900303EE52A56
:1027A0008301A900D92B2908840083130008E5229E
:1027B000A90A290884008313800803190800D32B71
:1027C00003308301B60040302B21B801B80A033032
:1027D000B600B8302B21AD01FB2B2D08903E8400B4
:1027E000831780080319FA2B2D08903E8400831765
:1027F0000008E522AD0A60302D0203180800ED2B19
:1028000003308301B60040302B210330B600B830CE
:102810002B21B201B301132C003062210A168A1158
:10282000B20A0319B30A043033020030031932022A
:10283000031C0C2C0330B60040302B210330B600B3
:10284000B8302B2900240A168A110330B600403014
:102850002B21B801B80A0330B600B8302B21AF01E4
:10286000AD2C831203132F08043E103E84008317FF
:102870000008F0002F0A103E840083170008700241
:102880002F080318612C033E103E840083170008B4
:10289000F0002F08103E8400831700087002F0003B
:1028A0007003AE002F0A103E840083170008F0006A
:1028B0002F08043E103E84008317000870023C3C41
:1028C0007B2C033E103E840083170008F0002F0885
:1028D000103E8400831700087002AE002F08043EEB
:1028E000103E840083170008F0002F0A103E840079
:1028F000831700087002AD00B2002E08D6200A1619
:102900008A11003062210330F1002F080A128A1563
:102910008E270A168A11F000700AAE00073A0319D2
:10292000A52C2E080E3A0319A52C2E08153A0319CA
:10293000A52C2E081C3A0319A52C2E08233A03199E
:10294000A52C2E082A3A031DAB2C003062210A1652
:102950008A11003062210330AF070330F200F30127
:102960002808F000F1010A128A151B240A168A11A0
:102970007408B0007508B1002F08F000F10171086B
:10298000803AF2003108803A7202031DC92C3008E7
:1029900070020318D12C5D30831203132F02031C25
:1029A000312C83010800173096270A168A118316E6
:1029B000880183120808AF00FF3083168800831255
:1029C0002F08013908008301B000C030831681054B
:1029D0000115831281019D300102031CEB2CB00B09
:1029E000E92C0800FA30E324FA30E324FA30E32437
:1029F000FA30E32CFA30E324FA30E32CFF3083166C
:102A00000313880087001030831285000130E3240F
:102A100009100130E324070887000808880009141A
:102A20000130E324183085000800173096270A1675
:102A30008A118316880183120808B400FF308316B8
:102A4000880083123408883908000E3096270A1649
:102A50008A1115250A168A11003803190800292D34
:102A600015250A168A110038031D302D88011630ED
:102A7000AA270A168A110000000015250A168A11D5
:102A80000038031908003D2D30250A3088000E302B
:102A9000AA270A168A1188011130AA270A168A1154
:102AA00088011230AA270A168A111430AA270A169A
:102AB0008A11603088001530AA270A168A11A030C2
:102AC00088001730AA270A168A1100000000152571
:102AD0000A168A11083A03190800672D8301A90014
:102AE00044255A30B400B501B50A0030CC270A1687
:102AF0008A112908B400B501B50A0030CC270A169E
:102B00008A11EC270A168A11B401B501B50AFF3003
:102B1000CC270A168A11FF30B400B501B50A00307F
:102B2000CC270A168A11EC270A168A110E3096272E
:102B30000A168A11173096270A168A1115250A16C1
:102B40008A11083A031D9E2D0A30E324AB01FE24AE
:102B50000A168A11AA010808831603179000831227
:102B60000313070883160317910083120313AB0A9C
:102B7000831603171108F200F3010130F20703185E
:102B8000F30A831203132B08F000F1017108803A55
:102B9000F4007308803A7402031DD02D720870028D
:102BA0000318E52D2B082B07AA00FE240A168A110C
:102BB0002A08903E84008317080880002A0A903E65
:102BC0008400831707088000B72D0E3096270A1659
:102BD0008A111730962F8301B001F42D3008903EF2
:102BE000840083178001B00A6030300203180800A7
:102BF000EE2D8301AD01AE01AF01EB2530250E3086
:102C0000B000B1010A30BD271130B000B101003071
:102C1000BD271230B000B1010030BD271430B00024
:102C2000B1010030BD271530B000B1010030BD2723
:102C3000A13088001730AA270A168A110A30E32427
:102C40000E3096270A168A1115250A168A11083A97
:102C500003194E2E242EFE240A168A11831688018B
:102C60008701831207080319462E08080319462E08
:102C70002D08903E84008317070880002D0A903E9F
:102C800084008317080880000230AD07FF308316E8
:102C9000880087008312AE0A0319AF0A2F08803A12
:102CA000F00081307002003003192E02031C2B2E1D
:102CB0000E3096270A168A111730962FEB254425D9
:102CC0004330B400B501B50A0230CC270A168A1188
:102CD0000530B400B501B50A0030CC270A168A11B8
:102CE000EC270A168A11B401B501B50AFF30CC27CA
:102CF0000A168A11FF30B400B501B50A0030CC279E
:102D00000A168A11EC270A168A110E3096270A161F
:102D10008A11173096270A168A1115250A168A1164
:102D2000083A0319992ED3240A168A11013A031D71
:102D30008D2E0A30E324AA01FE240A168A11FE24ED
:102D40000A168A1130302A020318BA2E2A082A07D6
:102D5000A900FE240A168A112908903E84008317D0
:102D600008088000290A903E840083170708800025
:102D7000AA0AA22E0E3096270A168A111730962715
:102D80000A168A11E02B8301AF01CC2E2F08103ECA
:102D9000840083178001AF0A60302F0203180800F7
:102DA000C62EC326FF308316880044254330B40066
:102DB000B501B50A0230CC270A168A11EC270A168B
:102DC0008A11EC270A168A11B401B501B50AFF3041
:102DD000CC270A168A11FF30B400B501B50A0030BD
:102DE000CC270A168A11EC270A168A110E3096276C
:102DF0000A168A11173096270A168A1115250A16FF
:102E00008A11083A03190A2FD3240A168A11013AA3
:102E1000031DFE2E0A30E324AE01FE240A168A1199
:102E2000FE240A168A118316870183120708A80058
:102E3000FF3083168700542F0330F1002E080A124A
:102E40008A150F240A168A11AD00FE240A168A116B
:102E5000FE240A168A11FE240A168A118316870197
:102E600083122D08103E8400831707088000FF306E
:102E700083168700FE240A168A11831688018701AB
:102E800083122D0A103E84008317080880002D0845
:102E9000023E103E8400831707088000FF3083162F
:102EA000880087008312AE0A83122E082802031CB2
:102EB0005D2F21302E02031C1C2F2E082802031C1C
:102EC000782F0330F1002E080A128A150F240A16F3
:102ED0008A11AD00FE240A168A11FE240A168A11F0
:102EE000FE240A168A11FE240A168A11AE0A5D2FE4
:102EF0000E3096270A168A11173096270A168A115D
:102F0000831688018312FF300818D32E8316880099
:102F10008312080000000000000000000000000014
:102F20000000000000000000830108008301B700DA
:102F3000FF30831687008800831237081F39850009
:102F40008A2709108A270808880009148A27183058
:102F5000850008008301B4008316880183121F399D
:102F600085008A278910000089148A27FF3083167C
:102F7000880018308312850008008301B2008800A1
:102F80003008AA270A168A11000015250A168A1188
:102F9000310603190800C52F8301B6008316880186
:102FA00087011030831285003608870034088800B6
:102FB0008A278910000089148A27FF308316880029
:102FC00087008312B5080319E92F0E3096270A16D9
:102FD0008A111830850008008316031388018701C1
:102FE000103083128500870188018A27891000002C
:102FF00089148A27FF308316880087000E30962FA9
:02400E003A3F37
:00000001FF
